{
  "transactions": [
    {
      "hash": "0xbcbed4cb79253558cfc4c1b18b643b36aa838d06163e21b69cb06e3b25d08ad1",
      "transactionType": "CALL",
      "contractName": null,
      "contractAddress": "0xf8493e24ca466442fa285acfafe2faa50b1aef8d",
      "function": "deployExternalTokenERC20((bytes32,uint8,uint64),string,string,uint8)",
      "arguments": [
        "(0x069b8857feab8184fb687f634618c035dac439dc1aeb3b5598a0f00000000001, 9, 6003100671677645902)",
        "Wrapped Solana",
        "wSOL",
        "18"
      ],
      "transaction": {
        "from": "0xe0b52ec5ce3e124ab5306ea42463be85aeb5eddd",
        "to": "0xf8493e24ca466442fa285acfafe2faa50b1aef8d",
        "gas": "0xe5278",
        "value": "0x0",
        "input": "0x92b23c6a069b8857feab8184fb687f634618c035dac439dc1aeb3b5598a0f000000000010000000000000000000000000000000000000000000000000000000000000009000000000000000000000000000000000000000000000000534f4c414e41444e00000000000000000000000000000000000000000000000000000000000000c000000000000000000000000000000000000000000000000000000000000001000000000000000000000000000000000000000000000000000000000000000012000000000000000000000000000000000000000000000000000000000000000e5772617070656420536f6c616e61000000000000000000000000000000000000000000000000000000000000000000000000000000000000000000000000000477534f4c00000000000000000000000000000000000000000000000000000000",
        "nonce": "0xdf",
        "chainId": "0x5618"
      },
      "additionalContracts": [
        {
          "transactionType": "CREATE",
          "address": "0x28559d10f1c1e0d74f7cfbb0bf48e75f605b73ac",
          "initCode": "0x60a0806040526104ad803803809161001782856102b7565b833981016040828203126101f35761002e826102f0565b602083015190926001600160401b0382116101f3570181601f820112156101f35780519061005b82610304565b9261006960405194856102b7565b828452602083830101116101f35760005b8281106102a2575050602060009183010152813b15610280577fa3f0ad74e5423aebfd80d3ef4346578335a9a72aeaee59ff6cb3582b35133d5080546001600160a01b0319166001600160a01b038416908117909155604051635c60da1b60e01b8152909190602081600481865afa90811561020057600091610246575b50803b156102255750817f1cf3b03a6cf19fa2baba4df148e9dcabedea7f8a5c07840e207e5c089be95d3e600080a280511561020c57602060049260405193848092635c60da1b60e01b82525afa918215610200576000926101b9575b509060008083602061019595519101845af43d156101b1573d9161017883610304565b9261018660405194856102b7565b83523d6000602085013e61031f565b505b60805260405161012c908161038182396080518160180152f35b60609161031f565b91506020823d6020116101f8575b816101d4602093836102b7565b810103126101f3576000806101eb610195946102f0565b935050610155565b600080fd5b3d91506101c7565b6040513d6000823e3d90fd5b505034156101975763b398979f60e01b60005260046000fd5b634c9c8ce360e01b60009081526001600160a01b0391909116600452602490fd5b90506020813d602011610278575b81610261602093836102b7565b810103126101f357610272906102f0565b386100f8565b3d9150610254565b50631933b43b60e21b60009081526001600160a01b0391909116600452602490fd5b8060208092840101518282870101520161007a565b601f909101601f19168101906001600160401b038211908210176102da57604052565b634e487b7160e01b600052604160045260246000fd5b51906001600160a01b03821682036101f357565b6001600160401b0381116102da57601f01601f191660200190565b90610345575080511561033457805190602001fd5b63d6bda27560e01b60005260046000fd5b81511580610377575b610356575090565b639996b31560e01b60009081526001600160a01b0391909116600452602490fd5b50803b1561034e56fe60806040819052635c60da1b60e01b81526020906004817f00000000000000000000000000000000000000000000000000000000000000006001600160a01b03165afa801560a5576000901560d6575060203d602011609f575b601f19601f820116608001906080821067ffffffffffffffff83111760895760859160405260800160b1565b60d6565b634e487b7160e01b600052604160045260246000fd5b503d6059565b6040513d6000823e3d90fd5b602090607f19011260d1576080516001600160a01b038116810360d15790565b600080fd5b60008091368280378136915af43d6000803e1560f1573d6000f35b3d6000fdfea2646970667358221220c65a9729bacad50af8698c5aadef0bb0ad528bc5b6f248a6053e7284d0ed56f264736f6c634300081d0033000000000000000000000000ea512e2bae151dfd5c4602e03c2c46449cf26514000000000000000000000000000000000000000000000000000000000000004000000000000000000000000000000000000000000000000000000000000001246a38eaa9000000000000000000000000566e90c0def120e88c81687278310b6324fdefda00000000000000000000000000000000000000000000000000000000000000a000000000000000000000000000000000000000000000000000000000000000e00000000000000000000000000000000000000000000000000000000000000012000000000000000000000000f8493e24ca466442fa285acfafe2faa50b1aef8d000000000000000000000000000000000000000000000000000000000000000e5772617070656420536f6c616e61000000000000000000000000000000000000000000000000000000000000000000000000000000000000000000000000000477534f4c0000000000000000000000000000000000000000000000000000000000000000000000000000000000000000000000000000000000000000"
        }
      ],
      "isFixedGasLimit": false
    },
    {
      "hash": "0x711ad2e73ec1629aa88540ba5e92b2bc7a631809819664ef98fa6cbff7586583",
      "transactionType": "CALL",
      "contractName": null,
      "contractAddress": "0xf8493e24ca466442fa285acfafe2faa50b1aef8d",
      "function": "unpauseToken(address)",
      "arguments": [
        "0x28559D10F1C1E0D74F7Cfbb0Bf48e75F605b73Ac"
      ],
      "transaction": {
        "from": "0xe0b52ec5ce3e124ab5306ea42463be85aeb5eddd",
        "to": "0xf8493e24ca466442fa285acfafe2faa50b1aef8d",
        "gas": "0x1baaa",
        "value": "0x0",
        "input": "0x3b3bff0f00000000000000000000000028559d10f1c1e0d74f7cfbb0bf48e75f605b73ac",
        "nonce": "0xe0",
        "chainId": "0x5618"
      },
      "additionalContracts": [],
      "isFixedGasLimit": false
    },
    {
      "hash": "0x0bd09b7ab6b09f2c50c97e032cdabd2fd36d2e2aa9bb897f33bf6f2994477e06",
      "transactionType": "CALL",
      "contractName": null,
      "contractAddress": "0xf8493e24ca466442fa285acfafe2faa50b1aef8d",
      "function": "addToken(address,(bytes32,uint8,uint64),bool)",
      "arguments": [
        "0x8D3e03889bFCb859B2dBEB65C60a52Ad9523512c",
        "(0x0cf5391a75aa30aac3fc339b93e3564b92e5af635ab99e5abffad5f967977dd5, 9, 6003100671677645902)",
        "false"
      ],
      "transaction": {
        "from": "0xe0b52ec5ce3e124ab5306ea42463be85aeb5eddd",
        "to": "0xf8493e24ca466442fa285acfafe2faa50b1aef8d",
        "gas": "0x3e7ee",
        "value": "0x0",
        "input": "0x0474d6230000000000000000000000008d3e03889bfcb859b2dbeb65c60a52ad9523512c0cf5391a75aa30aac3fc339b93e3564b92e5af635ab99e5abffad5f967977dd50000000000000000000000000000000000000000000000000000000000000009000000000000000000000000000000000000000000000000534f4c414e41444e0000000000000000000000000000000000000000000000000000000000000000",
        "nonce": "0xe1",
        "chainId": "0x5618"
      },
      "additionalContracts": [],
      "isFixedGasLimit": false
    },
    {
      "hash": "0x4b6d79872a6165e7f0ed0b558191da59b2f5e236b8021e4489ce659f706f4893",
      "transactionType": "CALL",
      "contractName": null,
      "contractAddress": "0xf8493e24ca466442fa285acfafe2faa50b1aef8d",
      "function": "addToken(address,(bytes32,uint8,uint64),bool)",
      "arguments": [
        "0xF7c8f345Ac1d29F13c16d8Ae34f534D9056E3FF2",
        "(0x0d8b73784501671729156800dd4fc25a222eb6d06b192fb7f9506710d8cf3fd4, 6, 6003100671677645902)",
        "false"
      ],
      "transaction": {
        "from": "0xe0b52ec5ce3e124ab5306ea42463be85aeb5eddd",
        "to": "0xf8493e24ca466442fa285acfafe2faa50b1aef8d",
        "gas": "0x422a6",
        "value": "0x0",
        "input": "0x0474d623000000000000000000000000f7c8f345ac1d29f13c16d8ae34f534d9056e3ff20d8b73784501671729156800dd4fc25a222eb6d06b192fb7f9506710d8cf3fd40000000000000000000000000000000000000000000000000000000000000006000000000000000000000000000000000000000000000000534f4c414e41444e0000000000000000000000000000000000000000000000000000000000000000",
        "nonce": "0xe2",
        "chainId": "0x5618"
      },
      "additionalContracts": [],
      "isFixedGasLimit": false
    }
  ],
  "receipts": [
    {
      "status": "0x1",
      "cumulativeGasUsed": "0x6ccfb",
      "logs": [
        {
          "address": "0x28559d10f1c1e0d74f7cfbb0bf48e75f605b73ac",
          "topics": [
            "0x1cf3b03a6cf19fa2baba4df148e9dcabedea7f8a5c07840e207e5c089be95d3e",
            "0x000000000000000000000000ea512e2bae151dfd5c4602e03c2c46449cf26514"
          ],
          "data": "0x",
          "blockHash": "0x9c6249fcb5a4794a72ace366ec1518c3bba2e1cf266a1f65b85a7a6ee60a4447",
          "blockNumber": "0x449fac",
          "transactionHash": "0xbcbed4cb79253558cfc4c1b18b643b36aa838d06163e21b69cb06e3b25d08ad1",
          "transactionIndex": "0x0",
          "logIndex": "0x0",
          "removed": false
        },
        {
          "address": "0x28559d10f1c1e0d74f7cfbb0bf48e75f605b73ac",
          "topics": [
            "0x2f658b440c35314f52658ea8a740e05b284cdc84dc9ae01e891f21b8933e7cad"
          ],
          "data": "0x000000000000000000000000566e90c0def120e88c81687278310b6324fdefda",
          "blockHash": "0x9c6249fcb5a4794a72ace366ec1518c3bba2e1cf266a1f65b85a7a6ee60a4447",
          "blockNumber": "0x449fac",
          "transactionHash": "0xbcbed4cb79253558cfc4c1b18b643b36aa838d06163e21b69cb06e3b25d08ad1",
          "transactionIndex": "0x0",
          "logIndex": "0x1",
          "removed": false
        },
        {
          "address": "0x28559d10f1c1e0d74f7cfbb0bf48e75f605b73ac",
          "topics": [
            "0xc7f505b2f371ae2175ee4913f4499e1f2633a7b5936321eed1cdaeb6115181d2"
          ],
          "data": "0x0000000000000000000000000000000000000000000000000000000000000001",
          "blockHash": "0x9c6249fcb5a4794a72ace366ec1518c3bba2e1cf266a1f65b85a7a6ee60a4447",
          "blockNumber": "0x449fac",
          "transactionHash": "0xbcbed4cb79253558cfc4c1b18b643b36aa838d06163e21b69cb06e3b25d08ad1",
          "transactionIndex": "0x0",
          "logIndex": "0x2",
          "removed": false
        },
        {
          "address": "0xf8493e24ca466442fa285acfafe2faa50b1aef8d",
          "topics": [
            "0x788f2c8f132f634bf6a027dbcacb6dd4437352588ed207265bb204854a687514",
            "0x00000000000000000000000028559d10f1c1e0d74f7cfbb0bf48e75f605b73ac",
            "0x069b8857feab8184fb687f634618c035dac439dc1aeb3b5598a0f00000000001"
          ],
          "data": "0x",
          "blockHash": "0x9c6249fcb5a4794a72ace366ec1518c3bba2e1cf266a1f65b85a7a6ee60a4447",
          "blockNumber": "0x449fac",
          "transactionHash": "0xbcbed4cb79253558cfc4c1b18b643b36aa838d06163e21b69cb06e3b25d08ad1",
          "transactionIndex": "0x0",
          "logIndex": "0x3",
          "removed": false
        },
        {
          "address": "0xf8493e24ca466442fa285acfafe2faa50b1aef8d",
          "topics": [
            "0x784c8f4dbf0ffedd6e72c76501c545a70f8b203b30a26ce542bf92ba87c248a4",
            "0x00000000000000000000000028559d10f1c1e0d74f7cfbb0bf48e75f605b73ac"
          ],
          "data": "0x",
          "blockHash": "0x9c6249fcb5a4794a72ace366ec1518c3bba2e1cf266a1f65b85a7a6ee60a4447",
          "blockNumber": "0x449fac",
          "transactionHash": "0xbcbed4cb79253558cfc4c1b18b643b36aa838d06163e21b69cb06e3b25d08ad1",
          "transactionIndex": "0x0",
          "logIndex": "0x4",
          "removed": false
        },
        {
          "address": "0xf8493e24ca466442fa285acfafe2faa50b1aef8d",
          "topics": [
            "0xf017c0de579727a3cd3ee18077ee8b4c43bf21892985952d1d5a0d52f983502d",
            "0x00000000000000000000000028559d10f1c1e0d74f7cfbb0bf48e75f605b73ac"
          ],
          "data": "0x",
          "blockHash": "0x9c6249fcb5a4794a72ace366ec1518c3bba2e1cf266a1f65b85a7a6ee60a4447",
          "blockNumber": "0x449fac",
          "transactionHash": "0xbcbed4cb79253558cfc4c1b18b643b36aa838d06163e21b69cb06e3b25d08ad1",
          "transactionIndex": "0x0",
          "logIndex": "0x5",
          "removed": false
        },
        {
          "address": "0xf8493e24ca466442fa285acfafe2faa50b1aef8d",
          "topics": [
            "0xb7b6fce08e69b1c5ccdb76be6aa9ffc35ac9ba37315f0cb898075133b48b0807"
          ],
          "data": "0x000000000000000000000000000000000000000000000000000000000000008000000000000000000000000000000000000000000000000000000000000000c0000000000000000000000000000000000000000000000000000000000000001200000000000000000000000028559d10f1c1e0d74f7cfbb0bf48e75f605b73ac000000000000000000000000000000000000000000000000000000000000000e5772617070656420536f6c616e61000000000000000000000000000000000000000000000000000000000000000000000000000000000000000000000000000477534f4c00000000000000000000000000000000000000000000000000000000",
          "blockHash": "0x9c6249fcb5a4794a72ace366ec1518c3bba2e1cf266a1f65b85a7a6ee60a4447",
          "blockNumber": "0x449fac",
          "transactionHash": "0xbcbed4cb79253558cfc4c1b18b643b36aa838d06163e21b69cb06e3b25d08ad1",
          "transactionIndex": "0x0",
          "logIndex": "0x6",
          "removed": false
        }
      ],
      "logsBloom": "0x00040000000000000000000000000000000000000000000000000000000000000002000000000000000000000000000000002004000000000800000000000000000000000000000001060000001000000000000000000000000000000000000000000000000000000000020000000008000000000000200001000000000000000040000000000000000800000000080008000000000080000000000000000000000000000000000000200800000000000000000000000000000000000000000000000000000100000200100000000000000000002004000400800000000000000000100001000000000008000000400000000000000000001200000002280000",
      "type": "0x0",
      "transactionHash": "0xbcbed4cb79253558cfc4c1b18b643b36aa838d06163e21b69cb06e3b25d08ad1",
      "transactionIndex": "0x0",
      "blockHash": "0x9c6249fcb5a4794a72ace366ec1518c3bba2e1cf266a1f65b85a7a6ee60a4447",
      "blockNumber": "0x449fac",
      "gasUsed": "0x6ccfb",
      "effectiveGasPrice": "0x0",
      "from": "0xe0b52ec5ce3e124ab5306ea42463be85aeb5eddd",
      "to": "0xf8493e24ca466442fa285acfafe2faa50b1aef8d",
      "contractAddress": null
    },
    {
      "status": "0x1",
      "cumulativeGasUsed": "0xd530",
      "logs": [
        {
          "address": "0xf8493e24ca466442fa285acfafe2faa50b1aef8d",
          "topics": [
            "0xf38578ed892ce2ce655ca8ae03c73464ad74915a1331a9b4085e637534daeedf",
            "0x00000000000000000000000028559d10f1c1e0d74f7cfbb0bf48e75f605b73ac"
          ],
          "data": "0x",
          "blockHash": "0xd8445edd14d001d50db4684557789855d41f970d06fe9f29e9f592535b73d0b3",
          "blockNumber": "0x449fad",
          "transactionHash": "0x711ad2e73ec1629aa88540ba5e92b2bc7a631809819664ef98fa6cbff7586583",
          "transactionIndex": "0x0",
          "logIndex": "0x0",
          "removed": false
        }
      ],
      "logsBloom": "0x00040000000000000000000000000000000000000000000000000000000000000000000000000000000000000000000001002000000000000000000010000000000000000000000000000000000000000000000000000000000000000000000000000000000000000000020000000000000000000000000000000000000000000000000000000000000000000000000000000000000000000000020000000000000000000000000000000000000000000000000000000000000000000000000000000000000000000000000000000000000000000000000000000000000000000000000000000000000000000000400000000000000000000200000002000000",
      "type": "0x0",
      "transactionHash": "0x711ad2e73ec1629aa88540ba5e92b2bc7a631809819664ef98fa6cbff7586583",
      "transactionIndex": "0x0",
      "blockHash": "0xd8445edd14d001d50db4684557789855d41f970d06fe9f29e9f592535b73d0b3",
      "blockNumber": "0x449fad",
      "gasUsed": "0xd530",
      "effectiveGasPrice": "0x0",
      "from": "0xe0b52ec5ce3e124ab5306ea42463be85aeb5eddd",
      "to": "0xf8493e24ca466442fa285acfafe2faa50b1aef8d",
      "contractAddress": null
    },
    {
      "status": "0x1",
      "cumulativeGasUsed": "0x1e3c3",
      "logs": [
        {
          "address": "0xf8493e24ca466442fa285acfafe2faa50b1aef8d",
          "topics": [
            "0x788f2c8f132f634bf6a027dbcacb6dd4437352588ed207265bb204854a687514",
            "0x0000000000000000000000008d3e03889bfcb859b2dbeb65c60a52ad9523512c",
            "0x0cf5391a75aa30aac3fc339b93e3564b92e5af635ab99e5abffad5f967977dd5"
          ],
          "data": "0x",
          "blockHash": "0xfc9bb7b78c00a06ab20853597451eb61788caa7be524bd92b738a2603a6bb1b8",
          "blockNumber": "0x449faf",
          "transactionHash": "0x0bd09b7ab6b09f2c50c97e032cdabd2fd36d2e2aa9bb897f33bf6f2994477e06",
          "transactionIndex": "0x0",
          "logIndex": "0x0",
          "removed": false
        },
        {
          "address": "0xf8493e24ca466442fa285acfafe2faa50b1aef8d",
          "topics": [
            "0x784c8f4dbf0ffedd6e72c76501c545a70f8b203b30a26ce542bf92ba87c248a4",
            "0x0000000000000000000000008d3e03889bfcb859b2dbeb65c60a52ad9523512c"
          ],
          "data": "0x",
          "blockHash": "0xfc9bb7b78c00a06ab20853597451eb61788caa7be524bd92b738a2603a6bb1b8",
          "blockNumber": "0x449faf",
          "transactionHash": "0x0bd09b7ab6b09f2c50c97e032cdabd2fd36d2e2aa9bb897f33bf6f2994477e06",
          "transactionIndex": "0x0",
          "logIndex": "0x1",
          "removed": false
        },
        {
          "address": "0xf8493e24ca466442fa285acfafe2faa50b1aef8d",
          "topics": [
            "0xf38578ed892ce2ce655ca8ae03c73464ad74915a1331a9b4085e637534daeedf",
            "0x0000000000000000000000008d3e03889bfcb859b2dbeb65c60a52ad9523512c"
          ],
          "data": "0x",
          "blockHash": "0xfc9bb7b78c00a06ab20853597451eb61788caa7be524bd92b738a2603a6bb1b8",
          "blockNumber": "0x449faf",
          "transactionHash": "0x0bd09b7ab6b09f2c50c97e032cdabd2fd36d2e2aa9bb897f33bf6f2994477e06",
          "transactionIndex": "0x0",
          "logIndex": "0x2",
          "removed": false
        }
      ],
      "logsBloom": "0x00040000000000000000000000000000000000000000000000000000000000000000000000000000000000000000000001000000000000000000100010100000000000000000000000040000000000000000000000000000000000000000000000000000000000000100000000000000000000000000200000000000000000000040400000000000000000000000000000000000000000000000020000000000000000000020000000200000000000000000000000000000000000000000000000000000000000000000000000000000000000000000000000000000000000000000100000000000000000000000000000000000000000041200000002000000",
      "type": "0x0",
      "transactionHash": "0x0bd09b7ab6b09f2c50c97e032cdabd2fd36d2e2aa9bb897f33bf6f2994477e06",
      "transactionIndex": "0x0",
      "blockHash": "0xfc9bb7b78c00a06ab20853597451eb61788caa7be524bd92b738a2603a6bb1b8",
      "blockNumber": "0x449faf",
      "gasUsed": "0x1e3c3",
      "effectiveGasPrice": "0x0",
      "from": "0xe0b52ec5ce3e124ab5306ea42463be85aeb5eddd",
      "to": "0xf8493e24ca466442fa285acfafe2faa50b1aef8d",
      "contractAddress": null
    },
    {
      "status": "0x1",
      "cumulativeGasUsed": "0x1e383",
      "logs": [
        {
          "address": "0xf8493e24ca466442fa285acfafe2faa50b1aef8d",
          "topics": [
            "0x788f2c8f132f634bf6a027dbcacb6dd4437352588ed207265bb204854a687514",
            "0x000000000000000000000000f7c8f345ac1d29f13c16d8ae34f534d9056e3ff2",
            "0x0d8b73784501671729156800dd4fc25a222eb6d06b192fb7f9506710d8cf3fd4"
          ],
          "data": "0x",
          "blockHash": "0x71bf20daeada5b347023f56110c76f3dac64318d0aefe05484d25938c9d1c35c",
          "blockNumber": "0x449fb0",
          "transactionHash": "0x4b6d79872a6165e7f0ed0b558191da59b2f5e236b8021e4489ce659f706f4893",
          "transactionIndex": "0x0",
          "logIndex": "0x0",
          "removed": false
        },
        {
          "address": "0xf8493e24ca466442fa285acfafe2faa50b1aef8d",
          "topics": [
            "0x784c8f4dbf0ffedd6e72c76501c545a70f8b203b30a26ce542bf92ba87c248a4",
            "0x000000000000000000000000f7c8f345ac1d29f13c16d8ae34f534d9056e3ff2"
          ],
          "data": "0x",
          "blockHash": "0x71bf20daeada5b347023f56110c76f3dac64318d0aefe05484d25938c9d1c35c",
          "blockNumber": "0x449fb0",
          "transactionHash": "0x4b6d79872a6165e7f0ed0b558191da59b2f5e236b8021e4489ce659f706f4893",
          "transactionIndex": "0x0",
          "logIndex": "0x1",
          "removed": false
        },
        {
          "address": "0xf8493e24ca466442fa285acfafe2faa50b1aef8d",
          "topics": [
            "0xf38578ed892ce2ce655ca8ae03c73464ad74915a1331a9b4085e637534daeedf",
            "0x000000000000000000000000f7c8f345ac1d29f13c16d8ae34f534d9056e3ff2"
          ],
          "data": "0x",
          "blockHash": "0x71bf20daeada5b347023f56110c76f3dac64318d0aefe05484d25938c9d1c35c",
          "blockNumber": "0x449fb0",
          "transactionHash": "0x4b6d79872a6165e7f0ed0b558191da59b2f5e236b8021e4489ce659f706f4893",
          "transactionIndex": "0x0",
          "logIndex": "0x2",
          "removed": false
        }
      ],
      "logsBloom": "0x00040000000000000000000000000000000000000000000000000200000000000000000000000000000800000000000001000000000000000000000010000000000000000000000000040000000800000000000000000000000000000000000000000000000000000000000000000000000000000000200000000000000000000040000000000000000000000000100000000000000000000000020000000000000000000000000000200000000000000000000000000000000000000000000000000000000000000000000000000000000000000000000000000000000000000000100000000000000000000000000000000000000000001200000002001000",
      "type": "0x0",
      "transactionHash": "0x4b6d79872a6165e7f0ed0b558191da59b2f5e236b8021e4489ce659f706f4893",
      "transactionIndex": "0x0",
      "blockHash": "0x71bf20daeada5b347023f56110c76f3dac64318d0aefe05484d25938c9d1c35c",
      "blockNumber": "0x449fb0",
      "gasUsed": "0x1e383",
      "effectiveGasPrice": "0x0",
      "from": "0xe0b52ec5ce3e124ab5306ea42463be85aeb5eddd",
      "to": "0xf8493e24ca466442fa285acfafe2faa50b1aef8d",
      "contractAddress": null
    }
  ],
  "libraries": [],
  "pending": [],
  "returns": {},
  "timestamp": 1747208579,
  "chain": 22040,
  "commit": "c1cc5011"
}