{
  "transactions": [
    {
      "hash": "0xb18f39ebc9e054081b5c02adf076cdfb8b09b76713a9e1bb17518dfd54ffabea",
      "transactionType": "CALL",
      "contractName": null,
      "contractAddress": "0xfdbbec1347b64c6eac2cbabfc98d908ac2a91570",
      "function": "addToken(address,(bytes32,uint8,uint64),bool)",
      "arguments": [
        "0x5B9E2BD997bc8f6aE97145cE0a8dEE075653f1AA",
        "(0x069b8857feab8184fb687f634618c035dac439dc1aeb3b5598a0f00000000001, 9, 6003100671677645902)",
        "false"
      ],
      "transaction": {
        "from": "0xe0b52ec5ce3e124ab5306ea42463be85aeb5eddd",
        "to": "0xfdbbec1347b64c6eac2cbabfc98d908ac2a91570",
        "gas": "0x3e788",
        "value": "0x0",
        "input": "0x0474d6230000000000000000000000005b9e2bd997bc8f6ae97145ce0a8dee075653f1aa069b8857feab8184fb687f634618c035dac439dc1aeb3b5598a0f000000000010000000000000000000000000000000000000000000000000000000000000009000000000000000000000000000000000000000000000000534f4c414e41444e0000000000000000000000000000000000000000000000000000000000000000",
        "nonce": "0xd7",
        "chainId": "0x5618"
      },
      "additionalContracts": [],
      "isFixedGasLimit": false
    }
  ],
  "receipts": [
    {
      "status": "0x1",
      "cumulativeGasUsed": "0x1e2c3",
      "logs": [
        {
          "address": "0xfdbbec1347b64c6eac2cbabfc98d908ac2a91570",
          "topics": [
            "0x788f2c8f132f634bf6a027dbcacb6dd4437352588ed207265bb204854a687514",
            "0x0000000000000000000000005b9e2bd997bc8f6ae97145ce0a8dee075653f1aa",
            "0x069b8857feab8184fb687f634618c035dac439dc1aeb3b5598a0f00000000001"
          ],
          "data": "0x",
          "blockHash": "0x6918aae1ebccd74492d7fef3f608d80215f75cee5128232a49849bce8e4f9933",
          "blockNumber": "0x448a7d",
          "transactionHash": "0xb18f39ebc9e054081b5c02adf076cdfb8b09b76713a9e1bb17518dfd54ffabea",
          "transactionIndex": "0x0",
          "logIndex": "0x0",
          "removed": false
        },
        {
          "address": "0xfdbbec1347b64c6eac2cbabfc98d908ac2a91570",
          "topics": [
            "0x784c8f4dbf0ffedd6e72c76501c545a70f8b203b30a26ce542bf92ba87c248a4",
            "0x0000000000000000000000005b9e2bd997bc8f6ae97145ce0a8dee075653f1aa"
          ],
          "data": "0x",
          "blockHash": "0x6918aae1ebccd74492d7fef3f608d80215f75cee5128232a49849bce8e4f9933",
          "blockNumber": "0x448a7d",
          "transactionHash": "0xb18f39ebc9e054081b5c02adf076cdfb8b09b76713a9e1bb17518dfd54ffabea",
          "transactionIndex": "0x0",
          "logIndex": "0x1",
          "removed": false
        },
        {
          "address": "0xfdbbec1347b64c6eac2cbabfc98d908ac2a91570",
          "topics": [
            "0xf38578ed892ce2ce655ca8ae03c73464ad74915a1331a9b4085e637534daeedf",
            "0x0000000000000000000000005b9e2bd997bc8f6ae97145ce0a8dee075653f1aa"
          ],
          "data": "0x",
          "blockHash": "0x6918aae1ebccd74492d7fef3f608d80215f75cee5128232a49849bce8e4f9933",
          "blockNumber": "0x448a7d",
          "transactionHash": "0xb18f39ebc9e054081b5c02adf076cdfb8b09b76713a9e1bb17518dfd54ffabea",
          "transactionIndex": "0x0",
          "logIndex": "0x2",
          "removed": false
        }
      ],
      "logsBloom": "0x00000000000000000000000000000000000000000000000000000000000001008002000000000000000000000000000001000000000000000000000010000000000000000000000001040000000000000000000000000000000000000000000000000000000000000000000000000000000000000000200040000000000000000040000000000000000000000410000000000000000000000000020000000000000000000000000000200800000000000000000000000000000000000000000000100000000000000000000000000000000000000000000000000000000000000000100000000000000000000000000000000000000000001000000000000000",
      "type": "0x0",
      "transactionHash": "0xb18f39ebc9e054081b5c02adf076cdfb8b09b76713a9e1bb17518dfd54ffabea",
      "transactionIndex": "0x0",
      "blockHash": "0x6918aae1ebccd74492d7fef3f608d80215f75cee5128232a49849bce8e4f9933",
      "blockNumber": "0x448a7d",
      "gasUsed": "0x1e2c3",
      "effectiveGasPrice": "0x0",
      "from": "0xe0b52ec5ce3e124ab5306ea42463be85aeb5eddd",
      "to": "0xfdbbec1347b64c6eac2cbabfc98d908ac2a91570",
      "contractAddress": null
    }
  ],
  "libraries": [],
  "pending": [],
  "returns": {},
  "timestamp": 1747137961,
  "chain": 22040,
  "commit": "942d8b7a"
}