{
  "transactions": [
    {
      "hash": "0x30654efdc509e68a87ef78a98fe56cae6ae3a475e736bd4698704c115180fa01",
      "transactionType": "CALL",
      "contractName": null,
      "contractAddress": "0x338c7ef1d18b9f8b9bb2b5b97cb6a179907fbef7",
      "function": "deployExternalTokenERC20((bytes32,uint8,uint64),string,string,uint8)",
      "arguments": [
        "(0x069b8857feab8184fb687f634618c035dac439dc1aeb3b5598a0f00000000001, 9, 6003100671677628416)",
        "Wrapped Solana",
        "wSOL",
        "18"
      ],
      "transaction": {
        "from": "0xf7fad4994965cedaeedd344b2b8f5f9a3b3c9e0a",
        "to": "0x338c7ef1d18b9f8b9bb2b5b97cb6a179907fbef7",
        "gas": "0xd8a24",
        "value": "0x0",
        "input": "0x92b23c6a069b8857feab8184fb687f634618c035dac439dc1aeb3b5598a0f000000000010000000000000000000000000000000000000000000000000000000000000009000000000000000000000000000000000000000000000000534f4c414e41000000000000000000000000000000000000000000000000000000000000000000c000000000000000000000000000000000000000000000000000000000000001000000000000000000000000000000000000000000000000000000000000000012000000000000000000000000000000000000000000000000000000000000000e5772617070656420536f6c616e61000000000000000000000000000000000000000000000000000000000000000000000000000000000000000000000000000477534f4c00000000000000000000000000000000000000000000000000000000",
        "nonce": "0xd",
        "chainId": "0x414e"
      },
      "additionalContracts": [
        {
          "transactionType": "CREATE",
          "address": "0x15c59080a8a39eee0d1429ab30a923bc210258bd",
          "initCode": "0x60a06040908082526104a8803803809161001982856102ae565b8339810182828203126101e95761002f826102e7565b60208084015191939091906001600160401b0382116101e9570182601f820112156101e957805190610060826102fb565b9361006d875195866102ae565b8285528383830101116101e957829060005b83811061029a57505060009184010152823b1561027a577fa3f0ad74e5423aebfd80d3ef4346578335a9a72aeaee59ff6cb3582b35133d5080546001600160a01b0319166001600160a01b038581169182179092558551635c60da1b60e01b8082529194928482600481895afa91821561026f57600092610238575b50813b1561021f5750508551847f1cf3b03a6cf19fa2baba4df148e9dcabedea7f8a5c07840e207e5c089be95d3e600080a282511561020057508290600487518096819382525afa9283156101f5576000936101b3575b5091600080848461019096519101845af4903d156101aa573d610174816102fb565b90610181885192836102ae565b8152600081943d92013e610316565b505b6080525161012e908161037a82396080518160180152f35b60609250610316565b92508183813d83116101ee575b6101ca81836102ae565b810103126101e9576000806101e1610190956102e7565b945050610152565b600080fd5b503d6101c0565b85513d6000823e3d90fd5b9350505050346102105750610192565b63b398979f60e01b8152600490fd5b8751634c9c8ce360e01b81529116600482015260249150fd5b9091508481813d8311610268575b61025081836102ae565b810103126101e957610261906102e7565b90386100fb565b503d610246565b88513d6000823e3d90fd5b8351631933b43b60e21b81526001600160a01b0384166004820152602490fd5b81810183015186820184015284920161007f565b601f909101601f19168101906001600160401b038211908210176102d157604052565b634e487b7160e01b600052604160045260246000fd5b51906001600160a01b03821682036101e957565b6001600160401b0381116102d157601f01601f191660200190565b9061033d575080511561032b57805190602001fd5b60405163d6bda27560e01b8152600490fd5b81511580610370575b61034e575090565b604051639996b31560e01b81526001600160a01b039091166004820152602490fd5b50803b1561034656fe60806040819052635c60da1b60e01b81526020816004817f00000000000000000000000000000000000000000000000000000000000000006001600160a01b03165afa90811560a9576000916054575b5060da565b905060203d60201160a3575b601f8101601f191682019167ffffffffffffffff831181841017608d576088926040520160b5565b38604f565b634e487b7160e01b600052604160045260246000fd5b503d6060565b6040513d6000823e3d90fd5b602090607f19011260d5576080516001600160a01b038116810360d55790565b600080fd5b6000808092368280378136915af43d82803e1560f4573d90f35b3d90fdfea2646970667358221220ecae6e18134365c91323379af6c5725cd8850de5937954f28c2c62a51df8b97b64736f6c63430008170033000000000000000000000000837311ea6821cf69ad71401ae9dd527b8f6a0b85000000000000000000000000000000000000000000000000000000000000004000000000000000000000000000000000000000000000000000000000000001246a38eaa9000000000000000000000000ea9c0586617a82abd4214a49dd723c3216281e4c00000000000000000000000000000000000000000000000000000000000000a000000000000000000000000000000000000000000000000000000000000000e00000000000000000000000000000000000000000000000000000000000000012000000000000000000000000338c7ef1d18b9f8b9bb2b5b97cb6a179907fbef7000000000000000000000000000000000000000000000000000000000000000e5772617070656420536f6c616e61000000000000000000000000000000000000000000000000000000000000000000000000000000000000000000000000000477534f4c0000000000000000000000000000000000000000000000000000000000000000000000000000000000000000000000000000000000000000"
        }
      ],
      "isFixedGasLimit": false
    },
    {
      "hash": "0x7198b4c822ee2657cf36b4e50e61b717aa121a635f0a2dc6671e0f59e92ebde8",
      "transactionType": "CALL",
      "contractName": null,
      "contractAddress": "0x338c7ef1d18b9f8b9bb2b5b97cb6a179907fbef7",
      "function": "unpauseToken(address)",
      "arguments": [
        "0x15c59080a8a39eee0d1429Ab30a923BC210258BD"
      ],
      "transaction": {
        "from": "0xf7fad4994965cedaeedd344b2b8f5f9a3b3c9e0a",
        "to": "0x338c7ef1d18b9f8b9bb2b5b97cb6a179907fbef7",
        "gas": "0x1d4fe",
        "value": "0x0",
        "input": "0x3b3bff0f00000000000000000000000015c59080a8a39eee0d1429ab30a923bc210258bd",
        "nonce": "0xe",
        "chainId": "0x414e"
      },
      "additionalContracts": [],
      "isFixedGasLimit": false
    },
    {
      "hash": "0x335732c1cdbdf6cf8b6b2ebdf6cd38e074ee151d49c81bb40eb91fca8f8082e3",
      "transactionType": "CALL",
      "contractName": null,
      "contractAddress": "0x338c7ef1d18b9f8b9bb2b5b97cb6a179907fbef7",
      "function": "addToken(address,(bytes32,uint8,uint64),bool)",
      "arguments": [
        "0x2b2d892C3fe2b4113dd7aC0D2c1882AF202FB28F",
        "(0x0672170e0af5a4d770d7b5c8c054409548ce7b6cd43893cde924c8c81790aa47, 9, 6003100671677628416)",
        "false"
      ],
      "transaction": {
        "from": "0xf7fad4994965cedaeedd344b2b8f5f9a3b3c9e0a",
        "to": "0x338c7ef1d18b9f8b9bb2b5b97cb6a179907fbef7",
        "gas": "0x3e704",
        "value": "0x0",
        "input": "0x0474d6230000000000000000000000002b2d892c3fe2b4113dd7ac0d2c1882af202fb28f0672170e0af5a4d770d7b5c8c054409548ce7b6cd43893cde924c8c81790aa470000000000000000000000000000000000000000000000000000000000000009000000000000000000000000000000000000000000000000534f4c414e4100000000000000000000000000000000000000000000000000000000000000000000",
        "nonce": "0xf",
        "chainId": "0x414e"
      },
      "additionalContracts": [],
      "isFixedGasLimit": false
    },
    {
      "hash": "0xda1cfa19abe5f9e9b1b539ee4c616263e4a1d0847e538f7beccf5cb30af59ef9",
      "transactionType": "CALL",
      "contractName": null,
      "contractAddress": "0x338c7ef1d18b9f8b9bb2b5b97cb6a179907fbef7",
      "function": "addToken(address,(bytes32,uint8,uint64),bool)",
      "arguments": [
        "0xFF9F502976E7bD2b4901aD7Dd1131Bb81E5567de",
        "(0xc6fa7af3bedbad3a3d65f36aabc97431b1bbe4c2d2f6e0e47ca60203452f5d61, 6, 6003100671677628416)",
        "false"
      ],
      "transaction": {
        "from": "0xf7fad4994965cedaeedd344b2b8f5f9a3b3c9e0a",
        "to": "0x338c7ef1d18b9f8b9bb2b5b97cb6a179907fbef7",
        "gas": "0x3e704",
        "value": "0x0",
        "input": "0x0474d623000000000000000000000000ff9f502976e7bd2b4901ad7dd1131bb81e5567dec6fa7af3bedbad3a3d65f36aabc97431b1bbe4c2d2f6e0e47ca60203452f5d610000000000000000000000000000000000000000000000000000000000000006000000000000000000000000000000000000000000000000534f4c414e4100000000000000000000000000000000000000000000000000000000000000000000",
        "nonce": "0x10",
        "chainId": "0x414e"
      },
      "additionalContracts": [],
      "isFixedGasLimit": false
    }
  ],
  "receipts": [
    {
      "status": "0x1",
      "cumulativeGasUsed": "0x1196c7",
      "logs": [
        {
          "address": "0x15c59080a8a39eee0d1429ab30a923bc210258bd",
          "topics": [
            "0x1cf3b03a6cf19fa2baba4df148e9dcabedea7f8a5c07840e207e5c089be95d3e",
            "0x000000000000000000000000837311ea6821cf69ad71401ae9dd527b8f6a0b85"
          ],
          "data": "0x",
          "blockHash": "0x016a296a6c21648eb5968e97d31ec8c1607b570e925bee40aa64d1213980cc5a",
          "blockNumber": "0x22dc2b3",
          "transactionHash": "0x30654efdc509e68a87ef78a98fe56cae6ae3a475e736bd4698704c115180fa01",
          "transactionIndex": "0x3",
          "logIndex": "0xb",
          "removed": false
        },
        {
          "address": "0x15c59080a8a39eee0d1429ab30a923bc210258bd",
          "topics": [
            "0x2f658b440c35314f52658ea8a740e05b284cdc84dc9ae01e891f21b8933e7cad"
          ],
          "data": "0x000000000000000000000000ea9c0586617a82abd4214a49dd723c3216281e4c",
          "blockHash": "0x016a296a6c21648eb5968e97d31ec8c1607b570e925bee40aa64d1213980cc5a",
          "blockNumber": "0x22dc2b3",
          "transactionHash": "0x30654efdc509e68a87ef78a98fe56cae6ae3a475e736bd4698704c115180fa01",
          "transactionIndex": "0x3",
          "logIndex": "0xc",
          "removed": false
        },
        {
          "address": "0x15c59080a8a39eee0d1429ab30a923bc210258bd",
          "topics": [
            "0xc7f505b2f371ae2175ee4913f4499e1f2633a7b5936321eed1cdaeb6115181d2"
          ],
          "data": "0x0000000000000000000000000000000000000000000000000000000000000001",
          "blockHash": "0x016a296a6c21648eb5968e97d31ec8c1607b570e925bee40aa64d1213980cc5a",
          "blockNumber": "0x22dc2b3",
          "transactionHash": "0x30654efdc509e68a87ef78a98fe56cae6ae3a475e736bd4698704c115180fa01",
          "transactionIndex": "0x3",
          "logIndex": "0xd",
          "removed": false
        },
        {
          "address": "0x338c7ef1d18b9f8b9bb2b5b97cb6a179907fbef7",
          "topics": [
            "0x788f2c8f132f634bf6a027dbcacb6dd4437352588ed207265bb204854a687514",
            "0x00000000000000000000000015c59080a8a39eee0d1429ab30a923bc210258bd",
            "0x069b8857feab8184fb687f634618c035dac439dc1aeb3b5598a0f00000000001"
          ],
          "data": "0x",
          "blockHash": "0x016a296a6c21648eb5968e97d31ec8c1607b570e925bee40aa64d1213980cc5a",
          "blockNumber": "0x22dc2b3",
          "transactionHash": "0x30654efdc509e68a87ef78a98fe56cae6ae3a475e736bd4698704c115180fa01",
          "transactionIndex": "0x3",
          "logIndex": "0xe",
          "removed": false
        },
        {
          "address": "0x338c7ef1d18b9f8b9bb2b5b97cb6a179907fbef7",
          "topics": [
            "0x784c8f4dbf0ffedd6e72c76501c545a70f8b203b30a26ce542bf92ba87c248a4",
            "0x00000000000000000000000015c59080a8a39eee0d1429ab30a923bc210258bd"
          ],
          "data": "0x",
          "blockHash": "0x016a296a6c21648eb5968e97d31ec8c1607b570e925bee40aa64d1213980cc5a",
          "blockNumber": "0x22dc2b3",
          "transactionHash": "0x30654efdc509e68a87ef78a98fe56cae6ae3a475e736bd4698704c115180fa01",
          "transactionIndex": "0x3",
          "logIndex": "0xf",
          "removed": false
        },
        {
          "address": "0x338c7ef1d18b9f8b9bb2b5b97cb6a179907fbef7",
          "topics": [
            "0xf017c0de579727a3cd3ee18077ee8b4c43bf21892985952d1d5a0d52f983502d",
            "0x00000000000000000000000015c59080a8a39eee0d1429ab30a923bc210258bd"
          ],
          "data": "0x",
          "blockHash": "0x016a296a6c21648eb5968e97d31ec8c1607b570e925bee40aa64d1213980cc5a",
          "blockNumber": "0x22dc2b3",
          "transactionHash": "0x30654efdc509e68a87ef78a98fe56cae6ae3a475e736bd4698704c115180fa01",
          "transactionIndex": "0x3",
          "logIndex": "0x10",
          "removed": false
        },
        {
          "address": "0x338c7ef1d18b9f8b9bb2b5b97cb6a179907fbef7",
          "topics": [
            "0xb7b6fce08e69b1c5ccdb76be6aa9ffc35ac9ba37315f0cb898075133b48b0807"
          ],
          "data": "0x000000000000000000000000000000000000000000000000000000000000008000000000000000000000000000000000000000000000000000000000000000c0000000000000000000000000000000000000000000000000000000000000001200000000000000000000000015c59080a8a39eee0d1429ab30a923bc210258bd000000000000000000000000000000000000000000000000000000000000000e5772617070656420536f6c616e61000000000000000000000000000000000000000000000000000000000000000000000000000000000000000000000000000477534f4c00000000000000000000000000000000000000000000000000000000",
          "blockHash": "0x016a296a6c21648eb5968e97d31ec8c1607b570e925bee40aa64d1213980cc5a",
          "blockNumber": "0x22dc2b3",
          "transactionHash": "0x30654efdc509e68a87ef78a98fe56cae6ae3a475e736bd4698704c115180fa01",
          "transactionIndex": "0x3",
          "logIndex": "0x11",
          "removed": false
        }
      ],
      "logsBloom": "0x00000000000000082000000000000000000000000000000000000000000000000002000000000000000000000000000000000004000000000000000000000000000000000000000001040000001000000000000000000000000000000000000000000010000002000000080000000000000000000000200001000000000000000040000000000000000800000000080008000000000180000000000004000000000000000000000000200800000048000000000000000000000000000000000002000000000100000200100000000000000000002004000000800000000200000000100000000000000008000000000000000100000000001000000000080000",
      "type": "0x0",
      "transactionHash": "0x30654efdc509e68a87ef78a98fe56cae6ae3a475e736bd4698704c115180fa01",
      "transactionIndex": "0x3",
      "blockHash": "0x016a296a6c21648eb5968e97d31ec8c1607b570e925bee40aa64d1213980cc5a",
      "blockNumber": "0x22dc2b3",
      "gasUsed": "0x6ce28",
      "effectiveGasPrice": "0x0",
      "from": "0xf7fad4994965cedaeedd344b2b8f5f9a3b3c9e0a",
      "to": "0x338c7ef1d18b9f8b9bb2b5b97cb6a179907fbef7",
      "contractAddress": null
    },
    {
      "status": "0x1",
      "cumulativeGasUsed": "0xd551",
      "logs": [
        {
          "address": "0x338c7ef1d18b9f8b9bb2b5b97cb6a179907fbef7",
          "topics": [
            "0xf38578ed892ce2ce655ca8ae03c73464ad74915a1331a9b4085e637534daeedf",
            "0x00000000000000000000000015c59080a8a39eee0d1429ab30a923bc210258bd"
          ],
          "data": "0x",
          "blockHash": "0x16840af9dae15118bc3349a4f50f190587fb917e14976722925cb87375c5da50",
          "blockNumber": "0x22dc2b5",
          "transactionHash": "0x7198b4c822ee2657cf36b4e50e61b717aa121a635f0a2dc6671e0f59e92ebde8",
          "transactionIndex": "0x0",
          "logIndex": "0x0",
          "removed": false
        }
      ],
      "logsBloom": "0x00000000000000002000000000000000000000000000000000000000000000000000000000000000000000000000000001000000000000000000000010000000000000000000000000000000000000000000000000000000000000000000000000000000000000000000000000000000000000000000000000000000000000000000000000000000000000000000000000000000000100000000020004000000000000000000000000000000000040000000000000000000000000000000000002000000000000000000000000000000000000000000000000000000000000000000000000000000000000000000000000000100000000000000000000000000",
      "type": "0x0",
      "transactionHash": "0x7198b4c822ee2657cf36b4e50e61b717aa121a635f0a2dc6671e0f59e92ebde8",
      "transactionIndex": "0x0",
      "blockHash": "0x16840af9dae15118bc3349a4f50f190587fb917e14976722925cb87375c5da50",
      "blockNumber": "0x22dc2b5",
      "gasUsed": "0xd551",
      "effectiveGasPrice": "0x0",
      "from": "0xf7fad4994965cedaeedd344b2b8f5f9a3b3c9e0a",
      "to": "0x338c7ef1d18b9f8b9bb2b5b97cb6a179907fbef7",
      "contractAddress": null
    },
    {
      "status": "0x1",
      "cumulativeGasUsed": "0x1e2ec",
      "logs": [
        {
          "address": "0x338c7ef1d18b9f8b9bb2b5b97cb6a179907fbef7",
          "topics": [
            "0x788f2c8f132f634bf6a027dbcacb6dd4437352588ed207265bb204854a687514",
            "0x0000000000000000000000002b2d892c3fe2b4113dd7ac0d2c1882af202fb28f",
            "0x0672170e0af5a4d770d7b5c8c054409548ce7b6cd43893cde924c8c81790aa47"
          ],
          "data": "0x",
          "blockHash": "0x83e716dba3e33111de0f322208f736c30651ae637bdf2e3634cd9fe7436ed600",
          "blockNumber": "0x22dc2b7",
          "transactionHash": "0x335732c1cdbdf6cf8b6b2ebdf6cd38e074ee151d49c81bb40eb91fca8f8082e3",
          "transactionIndex": "0x0",
          "logIndex": "0x0",
          "removed": false
        },
        {
          "address": "0x338c7ef1d18b9f8b9bb2b5b97cb6a179907fbef7",
          "topics": [
            "0x784c8f4dbf0ffedd6e72c76501c545a70f8b203b30a26ce542bf92ba87c248a4",
            "0x0000000000000000000000002b2d892c3fe2b4113dd7ac0d2c1882af202fb28f"
          ],
          "data": "0x",
          "blockHash": "0x83e716dba3e33111de0f322208f736c30651ae637bdf2e3634cd9fe7436ed600",
          "blockNumber": "0x22dc2b7",
          "transactionHash": "0x335732c1cdbdf6cf8b6b2ebdf6cd38e074ee151d49c81bb40eb91fca8f8082e3",
          "transactionIndex": "0x0",
          "logIndex": "0x1",
          "removed": false
        },
        {
          "address": "0x338c7ef1d18b9f8b9bb2b5b97cb6a179907fbef7",
          "topics": [
            "0xf38578ed892ce2ce655ca8ae03c73464ad74915a1331a9b4085e637534daeedf",
            "0x0000000000000000000000002b2d892c3fe2b4113dd7ac0d2c1882af202fb28f"
          ],
          "data": "0x",
          "blockHash": "0x83e716dba3e33111de0f322208f736c30651ae637bdf2e3634cd9fe7436ed600",
          "blockNumber": "0x22dc2b7",
          "transactionHash": "0x335732c1cdbdf6cf8b6b2ebdf6cd38e074ee151d49c81bb40eb91fca8f8082e3",
          "transactionIndex": "0x0",
          "logIndex": "0x2",
          "removed": false
        }
      ],
      "logsBloom": "0x00000000000000002000000000000000000000000000000000000000000000000000000000000000000000000000000001000000000000000000000010000000000000000000000000040000000000000000000000000010000000000000000000000000000000000000000000000000000000000000200000000020000000000040000000040008000000000000000000000040000000000000020004000000000000000000000000200000000000000000000000000000000000000000000002000000000000000000000000000000000000000000000000000000000000000000110000000000000000000000000000000000000000001000000000000000",
      "type": "0x0",
      "transactionHash": "0x335732c1cdbdf6cf8b6b2ebdf6cd38e074ee151d49c81bb40eb91fca8f8082e3",
      "transactionIndex": "0x0",
      "blockHash": "0x83e716dba3e33111de0f322208f736c30651ae637bdf2e3634cd9fe7436ed600",
      "blockNumber": "0x22dc2b7",
      "gasUsed": "0x1e2ec",
      "effectiveGasPrice": "0x0",
      "from": "0xf7fad4994965cedaeedd344b2b8f5f9a3b3c9e0a",
      "to": "0x338c7ef1d18b9f8b9bb2b5b97cb6a179907fbef7",
      "contractAddress": null
    },
    {
      "status": "0x1",
      "cumulativeGasUsed": "0x1e2ec",
      "logs": [
        {
          "address": "0x338c7ef1d18b9f8b9bb2b5b97cb6a179907fbef7",
          "topics": [
            "0x788f2c8f132f634bf6a027dbcacb6dd4437352588ed207265bb204854a687514",
            "0x000000000000000000000000ff9f502976e7bd2b4901ad7dd1131bb81e5567de",
            "0xc6fa7af3bedbad3a3d65f36aabc97431b1bbe4c2d2f6e0e47ca60203452f5d61"
          ],
          "data": "0x",
          "blockHash": "0x283ac03bb47612814c42da61cda90a08c21ff1d7503018d58812ed79eb673daf",
          "blockNumber": "0x22dc2b8",
          "transactionHash": "0xda1cfa19abe5f9e9b1b539ee4c616263e4a1d0847e538f7beccf5cb30af59ef9",
          "transactionIndex": "0x0",
          "logIndex": "0x0",
          "removed": false
        },
        {
          "address": "0x338c7ef1d18b9f8b9bb2b5b97cb6a179907fbef7",
          "topics": [
            "0x784c8f4dbf0ffedd6e72c76501c545a70f8b203b30a26ce542bf92ba87c248a4",
            "0x000000000000000000000000ff9f502976e7bd2b4901ad7dd1131bb81e5567de"
          ],
          "data": "0x",
          "blockHash": "0x283ac03bb47612814c42da61cda90a08c21ff1d7503018d58812ed79eb673daf",
          "blockNumber": "0x22dc2b8",
          "transactionHash": "0xda1cfa19abe5f9e9b1b539ee4c616263e4a1d0847e538f7beccf5cb30af59ef9",
          "transactionIndex": "0x0",
          "logIndex": "0x1",
          "removed": false
        },
        {
          "address": "0x338c7ef1d18b9f8b9bb2b5b97cb6a179907fbef7",
          "topics": [
            "0xf38578ed892ce2ce655ca8ae03c73464ad74915a1331a9b4085e637534daeedf",
            "0x000000000000000000000000ff9f502976e7bd2b4901ad7dd1131bb81e5567de"
          ],
          "data": "0x",
          "blockHash": "0x283ac03bb47612814c42da61cda90a08c21ff1d7503018d58812ed79eb673daf",
          "blockNumber": "0x22dc2b8",
          "transactionHash": "0xda1cfa19abe5f9e9b1b539ee4c616263e4a1d0847e538f7beccf5cb30af59ef9",
          "transactionIndex": "0x0",
          "logIndex": "0x2",
          "removed": false
        }
      ],
      "logsBloom": "0x00000000000000006000000000000000000000000080000000000000000000000000000000000000000000000000000001000000000400000000000010000000000000000000000000040000000000000000000000000000000000000000000000000000000000000000000000000800000000000000200000000000000000000040000000000000000000000000000000000000000000000000020004000000000000000000000000200000000000000000000000000000000000000000000002000001000000000000000000000000000000000000040000000000000000000000100000000000000000000000000000000000000000001000000000000000",
      "type": "0x0",
      "transactionHash": "0xda1cfa19abe5f9e9b1b539ee4c616263e4a1d0847e538f7beccf5cb30af59ef9",
      "transactionIndex": "0x0",
      "blockHash": "0x283ac03bb47612814c42da61cda90a08c21ff1d7503018d58812ed79eb673daf",
      "blockNumber": "0x22dc2b8",
      "gasUsed": "0x1e2ec",
      "effectiveGasPrice": "0x0",
      "from": "0xf7fad4994965cedaeedd344b2b8f5f9a3b3c9e0a",
      "to": "0x338c7ef1d18b9f8b9bb2b5b97cb6a179907fbef7",
      "contractAddress": null
    }
  ],
  "libraries": [],
  "pending": [],
  "returns": {},
  "timestamp": 1748262191,
  "chain": 16718,
  "commit": "ccfe6f3e"
}