{
  "transactions": [
    {
      "hash": "0x4912da9aae3d3bcd5ee13bb0d88185543deb00d685b9e50aae55c3d733d91247",
      "transactionType": "CALL",
      "contractName": null,
      "contractAddress": "0x5bcb9233dfebcec502c1acce6fc94feff8c037c3",
      "function": "addToken(address,(bytes32,uint8),bool)",
      "arguments": [
        "0x2Cf845b49e1c4E5D657fbBF36E97B7B5B7B7b74b",
        "(0x0cf53911c806ccffeb6a2cf754a5ec25b87f7a733cf375a90ce5faac9fcf4c5b, 6)",
        "false"
      ],
      "transaction": {
        "from": "0xe0b52ec5ce3e124ab5306ea42463be85aeb5eddd",
        "to": "0x5bcb9233dfebcec502c1acce6fc94feff8c037c3",
        "gas": "0x42346",
        "value": "0x0",
        "input": "0x9977a3a40000000000000000000000002cf845b49e1c4e5d657fbbf36e97b7b5b7b7b74b0cf53911c806ccffeb6a2cf754a5ec25b87f7a733cf375a90ce5faac9fcf4c5b00000000000000000000000000000000000000000000000000000000000000060000000000000000000000000000000000000000000000000000000000000000",
        "nonce": "0x93",
        "chainId": "0x5618"
      },
      "additionalContracts": [],
      "isFixedGasLimit": false
    }
  ],
  "receipts": [
    {
      "status": "0x1",
      "cumulativeGasUsed": "0x1e25e",
      "logs": [
        {
          "address": "0x5bcb9233dfebcec502c1acce6fc94feff8c037c3",
          "topics": [
            "0x788f2c8f132f634bf6a027dbcacb6dd4437352588ed207265bb204854a687514",
            "0x0000000000000000000000002cf845b49e1c4e5d657fbbf36e97b7b5b7b7b74b",
            "0x0cf53911c806ccffeb6a2cf754a5ec25b87f7a733cf375a90ce5faac9fcf4c5b"
          ],
          "data": "0x",
          "blockHash": "0x039afd82fcc1108e95038902f2057cf8534bf09bfa8fba1a7c3369c7c64d27e5",
          "blockNumber": "0x3b6d7f",
          "transactionHash": "0x4912da9aae3d3bcd5ee13bb0d88185543deb00d685b9e50aae55c3d733d91247",
          "transactionIndex": "0x0",
          "logIndex": "0x0",
          "removed": false
        },
        {
          "address": "0x5bcb9233dfebcec502c1acce6fc94feff8c037c3",
          "topics": [
            "0x784c8f4dbf0ffedd6e72c76501c545a70f8b203b30a26ce542bf92ba87c248a4",
            "0x0000000000000000000000002cf845b49e1c4e5d657fbbf36e97b7b5b7b7b74b"
          ],
          "data": "0x",
          "blockHash": "0x039afd82fcc1108e95038902f2057cf8534bf09bfa8fba1a7c3369c7c64d27e5",
          "blockNumber": "0x3b6d7f",
          "transactionHash": "0x4912da9aae3d3bcd5ee13bb0d88185543deb00d685b9e50aae55c3d733d91247",
          "transactionIndex": "0x0",
          "logIndex": "0x1",
          "removed": false
        },
        {
          "address": "0x5bcb9233dfebcec502c1acce6fc94feff8c037c3",
          "topics": [
            "0xf38578ed892ce2ce655ca8ae03c73464ad74915a1331a9b4085e637534daeedf",
            "0x0000000000000000000000002cf845b49e1c4e5d657fbbf36e97b7b5b7b7b74b"
          ],
          "data": "0x",
          "blockHash": "0x039afd82fcc1108e95038902f2057cf8534bf09bfa8fba1a7c3369c7c64d27e5",
          "blockNumber": "0x3b6d7f",
          "transactionHash": "0x4912da9aae3d3bcd5ee13bb0d88185543deb00d685b9e50aae55c3d733d91247",
          "transactionIndex": "0x0",
          "logIndex": "0x2",
          "removed": false
        }
      ],
      "logsBloom": "0x00000000000000000000000000000000000000000000000000000000000000000000000000000000000000000000000001000000000000000000000010040000000000000020000000040000000000000000000000000000000000000000000000000000000000000000000000000000000000000000200000000000000000000040000000000000000000000000000000000000000000000800020000000000000000000000000000200000000000000000000000000000000800000000000000000001000000000000000000000000000000000000000000000000000000000000100010000000000000000000000000000000000200001000004000000400",
      "type": "0x0",
      "transactionHash": "0x4912da9aae3d3bcd5ee13bb0d88185543deb00d685b9e50aae55c3d733d91247",
      "transactionIndex": "0x0",
      "blockHash": "0x039afd82fcc1108e95038902f2057cf8534bf09bfa8fba1a7c3369c7c64d27e5",
      "blockNumber": "0x3b6d7f",
      "gasUsed": "0x1e25e",
      "effectiveGasPrice": "0x2d79883d2000",
      "from": "0xe0b52ec5ce3e124ab5306ea42463be85aeb5eddd",
      "to": "0x5bcb9233dfebcec502c1acce6fc94feff8c037c3",
      "contractAddress": null
    }
  ],
  "libraries": [],
  "pending": [],
  "returns": {},
  "timestamp": 1742233525,
  "chain": 22040,
  "commit": "b8faea8d"
}